{
  "_format": "hh-sol-artifact-1",
  "contractName": "Election",
  "sourceName": "contracts/Election.sol",
  "abi": [
    {
      "inputs": [],
      "stateMutability": "nonpayable",
      "type": "constructor"
    },
    {
      "anonymous": false,
      "inputs": [
        {
          "indexed": true,
          "internalType": "address",
          "name": "_voter",
          "type": "address"
        },
        {
          "indexed": false,
          "internalType": "bool",
          "name": "voted",
          "type": "bool"
        }
      ],
      "name": "voted",
      "type": "event"
    },
    {
      "inputs": [],
      "name": "ElectionComission",
      "outputs": [
        {
          "internalType": "address",
          "name": "",
          "type": "address"
        }
      ],
      "stateMutability": "view",
      "type": "function"
    },
    {
      "inputs": [
        {
          "internalType": "address",
          "name": "_voter",
          "type": "address"
        }
      ],
      "name": "addVoters",
      "outputs": [],
      "stateMutability": "nonpayable",
      "type": "function"
    },
    {
      "inputs": [],
      "name": "candidatesCount",
      "outputs": [
        {
          "internalType": "uint256",
          "name": "",
          "type": "uint256"
        }
      ],
      "stateMutability": "view",
      "type": "function"
    },
    {
      "inputs": [
        {
          "internalType": "address",
          "name": "_voter",
          "type": "address"
        }
      ],
      "name": "removeVoters",
      "outputs": [],
      "stateMutability": "nonpayable",
      "type": "function"
    },
    {
      "inputs": [
        {
          "internalType": "uint256",
          "name": "_candidate",
          "type": "uint256"
        }
      ],
      "name": "vote",
      "outputs": [],
      "stateMutability": "nonpayable",
      "type": "function"
    },
    {
      "inputs": [
        {
          "internalType": "address",
          "name": "",
          "type": "address"
        }
      ],
      "name": "voters",
      "outputs": [
        {
          "internalType": "bool",
          "name": "",
          "type": "bool"
        }
      ],
      "stateMutability": "view",
      "type": "function"
    },
    {
      "inputs": [
        {
          "internalType": "uint256",
          "name": "",
          "type": "uint256"
        }
      ],
      "name": "votes",
      "outputs": [
        {
          "internalType": "uint256",
          "name": "",
          "type": "uint256"
        }
      ],
      "stateMutability": "view",
      "type": "function"
    }
  ],
  "bytecode": "0x608060405234801561001057600080fd5b50336000806101000a81548173ffffffffffffffffffffffffffffffffffffffff021916908373ffffffffffffffffffffffffffffffffffffffff1602179055506108d5806100606000396000f3fe608060405234801561001057600080fd5b506004361061007d5760003560e01c80635df813301161005b5780635df81330146100d8578063638a4b9b14610108578063a3ec138d14610124578063dae0ff12146101545761007d565b80630121b93f146100825780632d35a8a21461009e5780634c105d1b146100bc575b600080fd5b61009c60048036038101906100979190610591565b610172565b005b6100a6610322565b6040516100b391906105cd565b60405180910390f35b6100d660048036038101906100d19190610646565b610328565b005b6100f260048036038101906100ed9190610591565b610411565b6040516100ff91906105cd565b60405180910390f35b610122600480360381019061011d9190610646565b610429565b005b61013e60048036038101906101399190610646565b610512565b60405161014b919061068e565b60405180910390f35b61015c610532565b60405161016991906106b8565b60405180910390f35b600360003373ffffffffffffffffffffffffffffffffffffffff1673ffffffffffffffffffffffffffffffffffffffff16815260200190815260200160002060009054906101000a900460ff166101fe576040517f08c379a00000000000000000000000000000000000000000000000000000000081526004016101f590610730565b60405180910390fd5b60008110158015610210575060028111155b61024f576040517f08c379a00000000000000000000000000000000000000000000000000000000081526004016102469061079c565b60405180910390fd5b600260008281526020019081526020016000206000815480929190610273906107eb565b91905055506001600360003373ffffffffffffffffffffffffffffffffffffffff1673ffffffffffffffffffffffffffffffffffffffff16815260200190815260200160002060006101000a81548160ff0219169083151502179055503373ffffffffffffffffffffffffffffffffffffffff167ff3f16a15f074b71c5138107dfc7c63b80524d5411cb967caa97d8d9f12b2fd6b6001604051610317919061068e565b60405180910390a250565b60015481565b60008054906101000a900473ffffffffffffffffffffffffffffffffffffffff1673ffffffffffffffffffffffffffffffffffffffff163373ffffffffffffffffffffffffffffffffffffffff16146103b6576040517f08c379a00000000000000000000000000000000000000000000000000000000081526004016103ad9061087f565b60405180910390fd5b6001600360008373ffffffffffffffffffffffffffffffffffffffff1673ffffffffffffffffffffffffffffffffffffffff16815260200190815260200160002060006101000a81548160ff02191690831515021790555050565b60026020528060005260406000206000915090505481565b60008054906101000a900473ffffffffffffffffffffffffffffffffffffffff1673ffffffffffffffffffffffffffffffffffffffff163373ffffffffffffffffffffffffffffffffffffffff16146104b7576040517f08c379a00000000000000000000000000000000000000000000000000000000081526004016104ae9061087f565b60405180910390fd5b6000600360008373ffffffffffffffffffffffffffffffffffffffff1673ffffffffffffffffffffffffffffffffffffffff16815260200190815260200160002060006101000a81548160ff02191690831515021790555050565b60036020528060005260406000206000915054906101000a900460ff1681565b60008054906101000a900473ffffffffffffffffffffffffffffffffffffffff1681565b600080fd5b6000819050919050565b61056e8161055b565b811461057957600080fd5b50565b60008135905061058b81610565565b92915050565b6000602082840312156105a7576105a6610556565b5b60006105b58482850161057c565b91505092915050565b6105c78161055b565b82525050565b60006020820190506105e260008301846105be565b92915050565b600073ffffffffffffffffffffffffffffffffffffffff82169050919050565b6000610613826105e8565b9050919050565b61062381610608565b811461062e57600080fd5b50565b6000813590506106408161061a565b92915050565b60006020828403121561065c5761065b610556565b5b600061066a84828501610631565b91505092915050565b60008115159050919050565b61068881610673565b82525050565b60006020820190506106a3600083018461067f565b92915050565b6106b281610608565b82525050565b60006020820190506106cd60008301846106a9565b92915050565b600082825260208201905092915050565b7f796f7520617265206e6f7420656c696769626c6520746f20766f746500000000600082015250565b600061071a601c836106d3565b9150610725826106e4565b602082019050919050565b600060208201905081810360008301526107498161070d565b9050919050565b7f696e76616c69642063616e646964617465000000000000000000000000000000600082015250565b60006107866011836106d3565b915061079182610750565b602082019050919050565b600060208201905081810360008301526107b581610779565b9050919050565b7f4e487b7100000000000000000000000000000000000000000000000000000000600052601160045260246000fd5b60006107f68261055b565b91507fffffffffffffffffffffffffffffffffffffffffffffffffffffffffffffffff8203610828576108276107bc565b5b600182019050919050565b7f7374726963746c792070726f6869626974656400000000000000000000000000600082015250565b60006108696013836106d3565b915061087482610833565b602082019050919050565b600060208201905081810360008301526108988161085c565b905091905056fea264697066735822122080454df50012897f63f941806551b2e11000249862d818d612fdfaf4058bb6df64736f6c63430008120033",
  "linkReferences": {},
  "deployedLinkReferences": {}
}